{
  "contractName": "TodoContract",
  "abi": [
    {
      "inputs": [],
      "stateMutability": "nonpayable",
      "type": "constructor"
    },
    {
      "anonymous": false,
      "inputs": [
        {
          "indexed": false,
          "internalType": "uint256",
          "name": "id",
          "type": "uint256"
        },
        {
          "indexed": false,
          "internalType": "bool",
          "name": "completed",
          "type": "bool"
        }
      ],
      "name": "taskCompleted",
      "type": "event"
    },
    {
      "anonymous": false,
      "inputs": [
        {
          "indexed": false,
          "internalType": "uint256",
          "name": "id",
          "type": "uint256"
        },
        {
          "indexed": false,
          "internalType": "string",
          "name": "description",
          "type": "string"
        },
        {
          "indexed": false,
          "internalType": "bool",
          "name": "completed",
          "type": "bool"
        }
      ],
      "name": "taskCreated",
      "type": "event"
    },
    {
      "inputs": [
        {
          "internalType": "uint256",
          "name": "",
          "type": "uint256"
        }
      ],
      "name": "tasks",
      "outputs": [
        {
          "internalType": "uint256",
          "name": "id",
          "type": "uint256"
        },
        {
          "internalType": "string",
          "name": "description",
          "type": "string"
        },
        {
          "internalType": "bool",
          "name": "completed",
          "type": "bool"
        }
      ],
      "stateMutability": "view",
      "type": "function",
      "constant": true
    },
    {
      "inputs": [],
      "name": "todoCount",
      "outputs": [
        {
          "internalType": "uint256",
          "name": "",
          "type": "uint256"
        }
      ],
      "stateMutability": "view",
      "type": "function",
      "constant": true
    },
    {
      "inputs": [
        {
          "internalType": "string",
          "name": "_description",
          "type": "string"
        }
      ],
      "name": "addTodo",
      "outputs": [],
      "stateMutability": "nonpayable",
      "type": "function"
    },
    {
      "inputs": [
        {
          "internalType": "uint256",
          "name": "_id",
          "type": "uint256"
        }
      ],
      "name": "toggleTaskStatus",
      "outputs": [],
      "stateMutability": "nonpayable",
      "type": "function"
    }
  ],
  "bytecode": "0x608060405234801561001057600080fd5b506100556040518060400160405280600481526020017f486579210000000000000000000000000000000000000000000000000000000081525061005a60201b60201c565b610244565b6000808154809291906001019190505550604051806060016040528060005481526020018281526020016000151581525060016000805481526020019081526020016000206000820151816000015560208201518160010190805190602001906100c592919061019f565b5060408201518160020160006101000a81548160ff0219169083151502179055509050507f7ffc5def84f84c9a24e3f0ad22a6aa1dcf1626b3936280fe2f8e5d38c636b641600054826000604051808481526020018060200183151515158152602001828103825284818151815260200191508051906020019080838360005b83811015610160578082015181840152602081019050610145565b50505050905090810190601f16801561018d5780820380516001836020036101000a031916815260200191505b5094505050505060405180910390a150565b828054600181600116156101000203166002900490600052602060002090601f016020900481019282601f106101e057805160ff191683800117855561020e565b8280016001018555821561020e579182015b8281111561020d5782518255916020019190600101906101f2565b5b50905061021b919061021f565b5090565b61024191905b8082111561023d576000816000905550600101610225565b5090565b90565b6106a0806102536000396000f3fe608060405234801561001057600080fd5b506004361061004c5760003560e01c80635357316e146100515780638d9776721461007f57806395ffebf514610138578063fe0dee17146101f3575b600080fd5b61007d6004803603602081101561006757600080fd5b8101908080359060200190929190505050610211565b005b6100ab6004803603602081101561009557600080fd5b8101908080359060200190929190505050610324565b604051808481526020018060200183151515158152602001828103825284818151815260200191508051906020019080838360005b838110156100fb5780820151818401526020810190506100e0565b50505050905090810190601f1680156101285780820380516001836020036101000a031916815260200191505b5094505050505060405180910390f35b6101f16004803603602081101561014e57600080fd5b810190808035906020019064010000000081111561016b57600080fd5b82018360208201111561017d57600080fd5b8035906020019184600183028401116401000000008311171561019f57600080fd5b91908080601f016020809104026020016040519081016040528093929190818152602001838380828437600081840152601f19601f8201169050808301925050505050505091929192905050506103f3565b005b6101fb610538565b6040518082815260200191505060405180910390f35b60006001600083815260200190815260200160002090508060020160009054906101000a900460ff16158160020160006101000a81548160ff0219169083151502179055508060016000848152602001908152602001600020600082015481600001556001820181600101908054600181600116156101000203166002900461029b92919061053e565b506002820160009054906101000a900460ff168160020160006101000a81548160ff0219169083151502179055509050507ffc8c3643622669a0bb21133ffa1738f6d5c2df6b162da4fed93691abb53c4656828260020160009054906101000a900460ff1660405180838152602001821515151581526020019250505060405180910390a15050565b6001602052806000526040600020600091509050806000015490806001018054600181600116156101000203166002900480601f0160208091040260200160405190810160405280929190818152602001828054600181600116156101000203166002900480156103d65780601f106103ab576101008083540402835291602001916103d6565b820191906000526020600020905b8154815290600101906020018083116103b957829003601f168201915b5050505050908060020160009054906101000a900460ff16905083565b60008081548092919060010191905055506040518060600160405280600054815260200182815260200160001515815250600160008054815260200190815260200160002060008201518160000155602082015181600101908051906020019061045e9291906105c5565b5060408201518160020160006101000a81548160ff0219169083151502179055509050507f7ffc5def84f84c9a24e3f0ad22a6aa1dcf1626b3936280fe2f8e5d38c636b641600054826000604051808481526020018060200183151515158152602001828103825284818151815260200191508051906020019080838360005b838110156104f95780820151818401526020810190506104de565b50505050905090810190601f1680156105265780820380516001836020036101000a031916815260200191505b5094505050505060405180910390a150565b60005481565b828054600181600116156101000203166002900490600052602060002090601f016020900481019282601f1061057757805485556105b4565b828001600101855582156105b457600052602060002091601f016020900482015b828111156105b3578254825591600101919060010190610598565b5b5090506105c19190610645565b5090565b828054600181600116156101000203166002900490600052602060002090601f016020900481019282601f1061060657805160ff1916838001178555610634565b82800160010185558215610634579182015b82811115610633578251825591602001919060010190610618565b5b5090506106419190610645565b5090565b61066791905b8082111561066357600081600090555060010161064b565b5090565b9056fea26469706673582212200019ae28424e4c3715d0b064b0b0269930f1b20d5aff2e0789a54270e35207be64736f6c63430006000033",
  "source": "pragma solidity ^0.6.0;\n\n\ncontract TodoContract {\n    //Keeping the count of todos\n    uint256 public todoCount;\n\n    //Struct to create tasks\n    struct Todo {\n        uint256 id;\n        string description;\n        bool completed;\n    }\n\n    //Storing the tasks\n    mapping(uint256 => Todo) public tasks;\n\n    event taskCreated(uint256 id, string description, bool completed);\n    event taskCompleted(uint256 id, bool completed);\n\n    constructor() public {\n        addTodo(\"Hey!\");\n    }\n\n    function addTodo(string memory _description) public {\n        todoCount++;\n        tasks[todoCount] = Todo(todoCount, _description, false);\n        emit taskCreated(todoCount, _description, false);\n    }\n\n    function toggleTaskStatus(uint256 _id) public {\n        Todo storage updatedTodo = tasks[_id];\n        updatedTodo.completed = !updatedTodo.completed;\n        tasks[_id] = updatedTodo;\n        emit taskCompleted(_id, updatedTodo.completed);\n    }\n}\n",
  "sourcePath": "/home/biryani/Desktop/consensolabs/learning/todo/contracts/TodoContract.sol",
  "compiler": {
    "name": "solc",
    "version": "0.6.0+commit.26b70077.Emscripten.clang"
  },
  "schemaVersion": "3.2.0",
  "updatedAt": "2020-06-04T17:02:16.746Z",
  "networkType": "ethereum",
  "devdoc": {
    "methods": {}
  },
  "userdoc": {
    "methods": {}
  }
}